:020000040800F2
:1000000000C00020B1060008650600086B06000865
:1000100071060008770600087D0600080000000051
:10002000000000000000000000000000B13E0008D9
:10003000830600080000000091400008D940000835
:10004000F9060008F9060008F9060008F906000894
:10005000F9060008F9060008F9060008F906000884
:10006000F9060008F9060008F9060008F906000874
:10007000F9060008F9060008F9060008F906000864
:10008000F9060008F9060008F9060008F906000854
:10009000F9060008F9060008F9060008F906000844
:1000A000F906000891060008F9060008F90600089C
:1000B000F9060008F9060008F9060008F906000824
:1000C000F9060008F9060008F9060008F906000814
:1000D000F9060008F9060008F9060008F906000804
:1000E000F9060008F9060008F9060008F9060008F4
:1000F000F9060008F9060008F9060008F9060008E4
:10010000F9060008F9060008F9060008F9060008D3
:10011000F9060008F9060008F9060008F9060008C3
:10012000F9060008F9060008F9060008F9060008B3
:1001300000000000000000000000000000000000BF
:1001400000000000000000000000000000000000AF
:10015000000000000000000000000000000000009F
:10016000000000000000000000000000000000008F
:10017000000000000000000000000000000000007F
:10018000000000000000000000000000000000006F
:10019000000000000000000000000000000000005F
:1001A000000000000000000000000000000000004F
:1001B000000000000000000000000000000000003F
:1001C000000000000000000000000000000000002F
:1001D000000000000000000000000000000000001F
:0401E0005FF8E0F1F3
:1001F00010B5054C237833B9044B13B10448AFF361
:1002000000800123237010BD1000002000000000BA
:100210000046000808B5034B1BB103490348AFF380
:10022000008008BD00000000140000200046000807
:1002300080B500AF00F062FA00F026F800F094F804
:1002400000F068F801F0C8FC094A0021094801F0F3
:1002500029FD0346084A1360084A0021084801F0B6
:1002600021FD0346074A136001F0E8FCFEE700BFEA
:100270005046000829040008381900207446000878
:10028000550400088019002080B590B000AF07F138
:10029000180328220021184604F0AAF93B1D002269
:1002A0001A605A609A60DA601A610123BB614FF4E8
:1002B0008033FB6100233B620123BB6202237B632B
:1002C0004FF48033BB634FF4E013FB6307F1180373
:1002D000184600F0EBFC0346002B01D000F0E2F8DA
:1002E0000F237B600223BB600023FB604FF480631D
:1002F0003B6100237B613B1D0221184600F056FF45
:100300000346002B01D000F0CDF800BF4037BD46BA
:1003100080BD000080B500AF114B124A1A60104B2F
:100320004FF4E1325A600E4B00229A600C4B0022CF
:10033000DA600B4B00221A61094B0C225A61084B00
:1003400000229A61064B0022DA61054801F068FB41
:100350000346002B01D000F0A5F800BF80BD00BF10
:100360003C1900200038014080B588B000AF07F18B
:10037000100300221A605A609A60DA60274B9B696A
:10038000264A43F010039361244B9B6903F010034A
:10039000FB60FB68214B9B69204A43F0200393617B
:1003A0001E4B9B6903F02003BB60BB681B4B9B6922
:1003B0001A4A43F004039361184B9B6903F004034A
:1003C0007B607B6800224FF48071154800F03CFC94
:1003D00001220421134800F037FC4FF480733B6185
:1003E00001237B610023BB610223FB6107F1100342
:1003F00019460B4800F094FA04233B6101237B610A
:100400000023BB610323FB6107F110031946054874
:1004100000F086FA00BF2037BD4680BD00100240C4
:10042000000801400014014080B582B000AF786040
:100430000421064800F020FC054B1B680133044AE8
:1004400013604FF4FA7001F0D7FCF1E7001401409B
:100450002C00002080B582B000AF7860064B1B688E
:10046000022BFBD14FF48071044800F005FC024BD5
:1004700000221A60F2E700BF2C00002000080140B3
:1004800080B582B000AF78607B681B68044A9342F5
:1004900001D100F049F900BF0837BD4680BD00BF5B
:1004A000002C014080B400AF72B600BFFEE7000030
:1004B00080B584B000AF184B9B69174A43F0010325
:1004C0009361154B9B6903F00103BB60BB68124B42
:1004D000DB69114A43F08053D3610F4BDB6903F0B2
:1004E00080537B607B6800220F216FF0010000F0D9
:1004F000ECF90A4B5B68FB60FB6823F0E063FB6090
:10050000FB6843F00073FB60044AFB68536000BF64
:100510001037BD4680BD00BF001002400000014002
:1005200080B588B000AF786007F1100300221A6030
:100530005A609A60DA607B681B681C4A934231D12A
:100540001B4B9B691A4A43F480439361184B9B6988
:1005500003F48043FB60FB68154B9B69144A43F02E
:1005600004039361124B9B6903F00403BB60BB68F7
:100570004FF400733B6102237B610323FB6107F1AE
:10058000100319460B4800F0CBF94FF480633B6130
:1005900000237B610023BB6107F110031946054866
:1005A00000F0BEF900BF2037BD4680BD00380140D5
:1005B000001002400008014080B58CB000AF7860A8
:1005C0000023FB620023BB6200227968192000F03F
:1005D0007CF9192000F095F91E4B9B691D4A43F4E4
:1005E000006393611B4B9B6903F40063FB60FB6832
:1005F00007F1100207F114031146184600F052FFEC
:1006000000F03CFFF862FB6A134AA2FB03239B0C39
:10061000013BBB62114B124A1A60104B40F2E732A9
:10062000DA600E4ABB6A53600C4B00221A610B4B16
:1006300000229A60094800F083FF0346002B04D192
:10064000064800F0D5FF034600E001231846303786
:10065000BD4680BD0010024083DE1B43841900208C
:10066000002C014080B400AFFEE780B400AFFEE78D
:1006700080B400AFFEE780B400AFFEE780B400AF07
:10068000FEE780B400AF00BFBD4680BC70470000ED
:1006900080B500AF024801F00BF800BF80BD00BF7D
:1006A0008419002080B400AF00BFBD4680BC7047F5
:1006B0000C480D490D4A002302E0D458C4500433BD
:1006C000C4188C42F9D30A4A0A4C002301E0136093
:1006D0000432A242FBD3FFF7E5FF03F057FFFFF719
:1006E000A7FD70470000002010000020B846000859
:1006F00010000020101A0020FEE7000080B500AFB7
:10070000084B1B68074A43F010031360032000F0F6
:10071000D1F80020FFF750FFFFF7CAFE002318466C
:1007200080BD00BF0020024080B400AF054B1B78A5
:100730001A46054B1B681344034A136000BFBD46AD
:1007400080BC704708000020CC19002080B400AFA6
:10075000024B1B681846BD4680BC7047CC19002070
:1007600080B485B000AF78607B6803F00703FB605E
:100770000C4BDB68BB60BA684FF6FF031340BB60ED
:10078000FB681A02BB68134343F0BF6343F40033B2
:10079000BB60044ABB68D36000BF1437BD4680BC51
:1007A000704700BF00ED00E080B400AF044BDB6891
:1007B0001B0A03F007031846BD4680BC704700BF04
:1007C00000ED00E080B483B000AF0346FB7197F901
:1007D0000730002B0BDBFB7903F01F02064997F96A
:1007E00007305B09012000FA02F241F8232000BF24
:1007F0000C37BD4680BC704700E100E080B483B098
:1008000000AF03463960FB7197F90730002B0ADB14
:100810003B68DAB20C4997F907301201D2B20B44A7
:1008200083F800230AE03B68DAB20849FB7903F059
:100830000F03043B1201D2B20B441A7600BF0C37EF
:10084000BD4680BC704700BF00E100E000ED00E065
:1008500080B489B000AFF860B9607A60FB6803F0DB
:100860000703FB61FB69C3F10703042B28BF0423C3
:10087000BB61FB690433062B02D9FB69033B00E033
:1008800000237B614FF0FF32BB6902FA03F3DA43C6
:10089000BB681A407B699A404FF0FF317B6901FACF
:1008A00003F3D9437B680B40134318462437BD46F6
:1008B00080BC704780B582B000AF78607868FFF781
:1008C0004FFF00BF0837BD4680BD80B586B000AF82
:1008D0000346B9607A60FB7300237B61FFF764FF16
:1008E00078617A68B9687869FFF7B2FF024697F9CC
:1008F0000F3011461846FFF781FF00BF1837BD467D
:1009000080BD80B582B000AF0346FB7197F9073018
:100910001846FFF757FF00BF0837BD4680BD0000EF
:1009200080B48BB000AF7860396000237B62002315
:100930003B6279E101227B6A02FA03F3FB613B68C7
:100940001B68FA691340BB61BA69FB699A4240F0BF
:1009500068813B685B68A04A93425ED09E4A93429E
:1009600075D89E4A934258D09C4A93426FD89C4A6D
:10097000934252D09A4A934269D89A4A93424CD0B1
:10098000984A934263D8984A934246D0964A9342F3
:100990005DD8122B2AD8122B59D801A252F823F075
:1009A0001B0A0008F5090008070A0008490A0008A0
:1009B0004F0A00084F0A00084F0A00084F0A0008B3
:1009C0004F0A00084F0A00084F0A00084F0A0008A3
:1009D0004F0A00084F0A00084F0A00084F0A000893
:1009E0004F0A0008FD090008110A00087F4A9342D7
:1009F00013D02CE03B68DB683B6229E03B68DB6896
:100A000004333B6224E03B68DB6808333B621FE051
:100A10003B68DB680C333B621AE03B689B68002B49
:100A200002D104233B6213E03B689B68012B05D194
:100A300008233B627B68FA691A6109E008233B627C
:100A40007B68FA695A6103E000233B6200E000BF63
:100A5000BB69FF2B01D87B6801E07B6804337B61B5
:100A6000BB69FF2B02D87B6A9B0002E07B6A083BD4
:100A70009B003B617B691A680F213B6901FA03F314
:100A8000DB431A40396A3B6901FA03F31A437B6975
:100A90001A603B685B6803F08053002B00F0C18054
:100AA000534B9B69524A43F001039361504B9B693E
:100AB00003F00103BB60BB684E4A7B6A9B080233AC
:100AC00052F82330FB607B6A03F003039B000F2284
:100AD00002FA03F3DB43FA681340FB607B68464A83
:100AE00093421FD07B68454A934219D07B68444AA1
:100AF000934213D07B68434A93420DD07B68424AAD
:100B0000934207D07B68414A934201D105230AE012
:100B1000062308E0042306E0032304E0022302E0A6
:100B2000012300E000237A6A02F00302920093405E
:100B3000FA681343FB602F497B6A9B080233FA680B
:100B400041F823203B685B6803F48033002B06D018
:100B50002F4B1A682E49BB6913430B6006E02C4BE0
:100B60001A68BB69DB432A4913400B603B685B682A
:100B700003F40033002B06D0254B5A682449BB6987
:100B800013434B6006E0224B5A68BB69DB432049A4
:100B900013404B603B685B6803F48013002B06D066
:100BA0001B4B9A681A49BB6913438B6006E0184BCC
:100BB0009A68BB69DB43164913408B603B685B68EE
:100BC00003F40013002B25D0114BDA681049BB69E0
:100BD0001343CB6025E000BF00003210000031104D
:100BE000000022100000211000001210000011105F
:100BF000001002400000014000080140000C0140CC
:100C0000001001400014014000180140001C014088
:100C1000000401400B4BDA68BB69DB430949134010
:100C2000CB607B6A01337B623B681A687B6A22FA7D
:100C300003F3002B7FF47EAE00BF00BF2C37BD4610
:100C400080BC70470004014080B483B000AF78607E
:100C50000B467B8013467B707B78002B03D07A8811
:100C60007B681A6103E07B881A047B681A6100BF05
:100C70000C37BD4680BC704780B485B000AF78604B
:100C80000B467B807B68DB68FB607A88FB681340DF
:100C90001A04FB68D9437B880B401A437B681A61AE
:100CA00000BF1437BD4680BC7047000080B586B0D9
:100CB00000AF78607B68002B01D101236CE27B6878
:100CC0001B6803F00103002B00F08780924B5B68E8
:100CD00003F00C03042B0CD08F4B5B6803F00C0368
:100CE000082B12D18C4B5B6803F48033B3F5803F43
:100CF0000BD1894B1B6803F40033002B6CD07B684D
:100D00005B68002B68D1012346E27B685B68B3F522
:100D1000803F06D1804B1B687F4A43F480331360C9
:100D20002EE07B685B68002B0CD17B4B1B687A4AFA
:100D300023F480331360784B1B68774A23F48023B5
:100D400013601DE07B685B68B3F5A02F0CD1724B7C
:100D50001B68714A43F4802313606F4B1B686E4A13
:100D600043F4803313600BE06B4B1B686A4A23F437
:100D700080331360684B1B68674A23F48023136039
:100D80007B685B68002B13D0FFF7E0FC386108E05C
:100D9000FFF7DCFC02463B69D31A642B01D903231D
:100DA000FAE15D4B1B6803F40033002BF0D014E034
:100DB000FFF7CCFC386108E0FFF7C8FC02463B694E
:100DC000D31A642B01D90323E6E1534B1B6803F4C8
:100DD0000033002BF0D100E000BF7B681B6803F0FC
:100DE0000203002B63D04C4B5B6803F00C03002B19
:100DF0000BD0494B5B6803F00C03082B1CD1464B0E
:100E00005B6803F48033002B16D1434B1B6803F05F
:100E10000203002B05D07B681B69012B01D0012345
:100E2000BAE13D4B1B6823F0F8027B685B69DB008D
:100E3000394913430B603AE07B681B69002B20D0D3
:100E4000364B01221A60FFF781FC386108E0FFF79A
:100E50007DFC02463B69D31A022B01D903239BE197
:100E60002D4B1B6803F00203002BF0D02A4B1B68AC
:100E700023F0F8027B685B69DB00274913430B60B2
:100E800015E0264B00221A60FFF760FC386108E08D
:100E9000FFF75CFC02463B69D31A022B01D90323FE
:100EA0007AE11D4B1B6803F00203002BF0D17B6835
:100EB0001B6803F00803002B3AD07B689B69002B6A
:100EC00019D0174B01221A60FFF740FC386108E087
:100ED000FFF73CFC02463B69D31A022B01D90323DE
:100EE0005AE10D4B5B6A03F00203002BF0D00120A6
:100EF00000F008FB1CE00A4B00221A60FFF726FCFA
:100F000038610FE0FFF722FC02463B69D31A022B3F
:100F100008D9032340E100BF001002400000424214
:100F2000800442429E4B5B6A03F00203002BE9D12E
:100F30007B681B6803F00403002B00F0A6800023ED
:100F4000FB75974BDB6903F08053002B0DD1944B5D
:100F5000DB69934A43F08053D361914BDB6903F023
:100F60008053BB60BB680123FB758E4B1B6803F489
:100F70008073002B18D18B4B1B688A4A43F4807313
:100F80001360FFF7E3FB386108E0FFF7DFFB024681
:100F90003B69D31A642B01D90323FDE0814B1B6805
:100FA00003F48073002BF0D07B68DB68012B06D143
:100FB0007B4B1B6A7A4A43F0010313622DE07B6886
:100FC000DB68002B0CD1764B1B6A754A23F00103BA
:100FD0001362734B1B6A724A23F0040313621CE012
:100FE0007B68DB68052B0CD16D4B1B6A6C4A43F0A8
:100FF000040313626A4B1B6A694A43F001031362DC
:101000000BE0674B1B6A664A23F001031362644BD3
:101010001B6A634A23F0040313627B68DB68002BBE
:1010200015D0FFF793FB38610AE0FFF78FFB02460C
:101030003B69D31A41F28832934201D90323ABE0D2
:10104000574B1B6A03F00203002BEED014E0FFF7AE
:101050007DFB38610AE0FFF779FB02463B69D31A52
:1010600041F28832934201D9032395E04C4B1B6A2D
:1010700003F00203002BEED1FB7D012B05D1484B81
:10108000DB69474A23F08053D3617B68DB69002B1F
:1010900000F08180424B5B6803F00C03082B61D0A9
:1010A0007B68DB69022B46D13F4B00221A60FFF7B9
:1010B0004DFB386108E0FFF749FB02463B69D31A54
:1010C000022B01D9032367E0354B1B6803F0007343
:1010D000002BF0D17B681B6AB3F5803F08D1304B01
:1010E0005B6823F400327B689B682D4913434B6097
:1010F0002B4B5B6823F474127B68196A7B685B6A0C
:101100000B43274913434B60274B01221A60FFF71B
:101110001DFB386108E0FFF719FB02463B69D31A53
:10112000022B01D9032337E01D4B1B6803F000732A
:10113000002BF0D02FE01C4B00221A60FFF706FBBB
:10114000386108E0FFF702FB02463B69D31A022B25
:1011500001D9032320E0124B1B6803F00073002B1E
:10116000F0D118E07B68DB69012B01D1012313E08A
:101170000B4B5B68FB60FB6803F480327B681B6A87
:101180009A4206D1FB6803F470127B685B6A9A424C
:1011900001D0012300E0002318461837BD4680BD6A
:1011A00000100240007000406000424280B584B0F0
:1011B00000AF786039607B68002B01D10123D0E05B
:1011C0006A4B1B6803F007033A689A4210D9674BD1
:1011D0001B6823F0070265493B6813430B60634BB0
:1011E0001B6803F007033A689A4201D00123B8E074
:1011F0007B681B6803F00203002B20D07B681B6810
:1012000003F00403002B05D0594B5B68584A43F4A4
:10121000E06353607B681B6803F00803002B05D074
:10122000534B5B68524A43F460535360504B5B68C6
:1012300023F0F0027B689B684D4913434B607B6849
:101240001B6803F00103002B40D07B685B68012B17
:1012500007D1474B1B6803F40033002B15D1012342
:101260007FE07B685B68022B07D1414B1B6803F072
:101270000073002B09D1012373E03D4B1B6803F081
:101280000203002B01D101236BE0394B5B6823F093
:1012900003027B685B68364913434B60FFF756FADD
:1012A000F8600AE0FFF752FA0246FB68D31A41F2EF
:1012B0008832934201D9032353E02D4B5B6803F03E
:1012C0000C027B685B689B009A42EBD1274B1B6842
:1012D00003F007033A689A4210D2244B1B6823F0AC
:1012E000070222493B6813430B60204B1B6803F045
:1012F00007033A689A4201D0012332E07B681B68F9
:1013000003F00403002B08D0194B5B6823F4E06260
:101310007B68DB68164913434B607B681B6803F0EE
:101320000803002B09D0124B5B6823F460527B68E2
:101330001B69DB000E4913434B6000F021F80246A5
:101340000B4B5B681B0903F00F030A49CB5C22FAC5
:1013500003F3094A1360094B1B681846FFF72CF981
:10136000002318461037BD4680BD00BF0020024054
:1013700000100240984600080000002004000020F1
:1013800090B48AB000AF2A4B3C1D0FCB84E80F000D
:1013900040F201233B800023FB610023BB6100235B
:1013A0007B6200237B6100233B62224B5B68FB6115
:1013B000FB6903F00C03042B02D0082B03D02DE0B3
:1013C0001D4B3B622DE0FB699B0C03F00F0307F103
:1013D0002802134413F8243C7B61FB6903F4803337
:1013E000002B13D0134B5B685B0C03F0010307F178
:1013F0002802134413F8283CBB617B690E4A02FBA8
:1014000003F2BB69B2FBF3F37B6204E07B690B4A36
:1014100002FB03F37B627B6A3B6202E0064B3B62AA
:1014200000BF3B6A18462837BD4690BC704700BFD6
:10143000284600080010024000127A0000093D0012
:1014400080B400AF024B1B681846BD4680BC704795
:101450000000002080B500AFFFF7F2FF0246054B09
:101460005B681B0A03F007030349CB5C22FA03F312
:10147000184680BD00100240A846000880B500AFA5
:10148000FFF7DEFF0246054B5B68DB0A03F007034C
:101490000349CB5C22FA03F3184680BD00100240DA
:1014A000A846000880B483B000AF786039607B68DC
:1014B0000F221A60114B5B6803F003027B685A60CD
:1014C0000E4B5B6803F0F0027B689A600B4B5B6825
:1014D00003F4E0627B68DA60084B5B68DB0803F4C6
:1014E000E0627B681A61064B1B6803F007023B68E9
:1014F0001A6000BF0C37BD4680BC70470010024028
:101500000020024080B485B000AF78600A4B1B68B1
:101510000A4AA2FB03235B0A7A6802FB03F3FB601F
:1015200000BFFB685A1EFA60002BF9D100BF00BF54
:101530001437BD4680BC704700000020D34D6210B8
:1015400080B582B000AF78607B68002B01D10123A9
:1015500041E07B6893F83D30DBB2002B06D17B681D
:10156000002283F83C20786800F039F87B6802227A
:1015700083F83D207B681A687B680433194610465F
:1015800000F0C2F97B68012283F846207B680122C3
:1015900083F83E207B68012283F83F207B6801228C
:1015A00083F840207B68012283F841207B68012278
:1015B00083F842207B68012283F843207B68012264
:1015C00083F844207B68012283F845207B68012250
:1015D00083F83D20002318460837BD4680BD80B4FF
:1015E00083B000AF786000BF0C37BD4680BC704749
:1015F00080B485B000AF78607B6893F83D30DBB293
:10160000012B01D0012344E07B68022283F83D20B6
:101610007B681B68DA687B681B6842F00102DA604D
:101620007B681B681D4A934218D07B681B681C4A64
:10163000934213D07B681B68B3F1804F0ED07B6858
:101640001B68184A934209D07B681B68164A93426C
:1016500004D07B681B68154A934211D17B681B68D4
:101660009B6803F00703FB60FB68062B10D07B68C8
:101670001B681A687B681B6842F001021A6007E069
:101680007B681B681A687B681B6842F001021A605D
:10169000002318461437BD4680BC7047002C01401B
:1016A000003401400004004000080040000C0040ED
:1016B00080B582B000AF78607B681B681B6903F05F
:1016C0000203022B22D17B681B68DB6803F0020354
:1016D000022B1BD17B681B686FF002021A617B68CA
:1016E00001221A777B681B689B6903F00303002BB8
:1016F00003D0786800F0EDF805E0786800F0E0F8D5
:10170000786800F0EFF87B6800221A777B681B6826
:101710001B6903F00403042B22D17B681B68DB6880
:1017200003F00403042B1BD17B681B686FF00402D9
:101730001A617B6802221A777B681B689B6903F435
:101740004073002B03D0786800F0C3F805E0786898
:1017500000F0B6F8786800F0C5F87B6800221A77C8
:101760007B681B681B6903F00803082B22D17B6888
:101770001B68DB6803F00803082B1BD17B681B6820
:101780006FF008021A617B6804221A777B681B6875
:10179000DB6903F00303002B03D0786800F099F8AD
:1017A00005E0786800F08CF8786800F09BF87B68BA
:1017B00000221A777B681B681B6903F01003102B4B
:1017C00022D17B681B68DB6803F01003102B1BD150
:1017D0007B681B686FF010021A617B6808221A7719
:1017E0007B681B68DB6903F44073002B03D07868C7
:1017F00000F06FF805E0786800F062F8786800F0B3
:1018000071F87B6800221A777B681B681B6903F0FC
:101810000103012B0ED17B681B68DB6803F0010319
:10182000012B07D17B681B686FF001021A61786891
:10183000FEF726FE7B681B681B6903F08003802B84
:101840000ED17B681B68DB6803F08003802B07D117
:101850007B681B686FF080021A61786800F0D7F827
:101860007B681B681B6903F04003402B0ED17B682B
:101870001B68DB6803F04003402B07D17B681B68C3
:101880006FF040021A61786800F035F87B681B68D9
:101890001B6903F02003202B0ED17B681B68DB68DB
:1018A00003F02003202B07D17B681B686FF0200218
:1018B0001A61786800F0A2F800BF0837BD4680BD05
:1018C00080B483B000AF786000BF0C37BD4680BCE9
:1018D000704780B483B000AF786000BF0C37BD465E
:1018E00080BC704780B483B000AF786000BF0C3715
:1018F000BD4680BC704780B483B000AF786000BF45
:101900000C37BD4680BC704780B485B000AF7860AE
:1019100039607B681B68FB607B68334A934213D055
:101920007B68324A93420FD07B68B3F1804F0BD073
:101930007B682F4A934207D07B682E4A934203D09C
:101940007B682D4A934208D1FB6823F07003FB604B
:101950003B685B68FA681343FB607B68224A9342EA
:1019600013D07B68214A93420FD07B68B3F1804F3C
:101970000BD07B681E4A934207D07B681D4A934276
:1019800003D07B681C4A934208D1FB6823F4407360
:10199000FB603B68DB68FA681343FB60FB6823F07D
:1019A00080023B685B691343FB607B68FA681A60DE
:1019B0003B689A687B68DA623B681A687B689A625F
:1019C0007B68094A934203D07B68084A934203D15B
:1019D0003B681A697B681A637B6801225A6100BF01
:1019E0001437BD4680BC7047002C014000340140D4
:1019F0000004004000080040000C004080B483B0A8
:101A000000AF786000BF0C37BD4680BC704780B423
:101A100083B000AF786000BF0C37BD4680BC704714
:101A200080B582B000AF78607B68002B01D10123C4
:101A30003FE07B6893F83D30DBB2002B06D17B683A
:101A4000002283F83C207868FEF76AFD7B68242238
:101A500083F83D207B681B68DA687B681B6822F48A
:101A60000052DA60786800F029F87B681B681A6910
:101A70007B681B6822F490421A617B681B685A6974
:101A80007B681B6822F02A025A617B681B68DA684F
:101A90007B681B6842F40052DA607B6800221A649B
:101AA0007B68202283F83D207B68202283F83E203B
:101AB000002318460837BD4680BD000080B584B0BD
:101AC00000AF78607B681B681B6923F440517B681A
:101AD000DA687B681B680A431A617B689A687B68CE
:101AE0001B691A437B685B691343BB607B681B6897
:101AF000DB6823F4B05323F00C037A681268B968EA
:101B00000B43D3607B681B685B6923F440717B687F
:101B10009A697B681B680A435A617B681B682C4A78
:101B2000934203D1FFF7AAFCF86002E0FFF792FCB2
:101B3000F860FA6813469B0013449A001A447B68C5
:101B40005B689B00B2FBF3F3224AA2FB03235B0911
:101B50001901FA6813469B0013449A001A447B68E3
:101B60005B689B00B2FBF3F21A4BA3FB02035B0919
:101B7000642000FB03F3D31A1B013233154AA2FB86
:101B800003235B0903F0F0031944FA6813469B0032
:101B900013449A001A447B685B689B00B2FBF3F223
:101BA0000C4BA3FB02035B09642000FB03F3D31A75
:101BB0001B013233074AA2FB03235B0903F00F0228
:101BC0007B681B680A449A6000BF1037BD4680BD21
:101BD000003801401F85EB5180B485B000AFEFF3B2
:101BE0000583BB60BB68002B0FD1EFF310837B60D4
:101BF0007B68002B09D1104B1B68022B09D1EFF336
:101C000011833B603B68002B03D06FF00503FB6042
:101C10000CE0094B1B68002B05D1074B01221A6011
:101C20000023FB6002E04FF0FF33FB60FB681846C7
:101C30001437BD4680BC70473000002080B584B0AA
:101C400000AFEFF30583BB60BB68002B0FD1EFF350
:101C500010837B607B68002B09D1114B1B68022B22
:101C600009D1EFF311833B603B68002B03D06FF089
:101C70000503FB600EE00A4B1B68012B07D1084BE4
:101C800002221A6001F078F80023FB6002E04FF0B6
:101C9000FF33FB60FB6818461037BD4680BD00BFB0
:101CA0003000002080B592B004AFF860B9607A606F
:101CB00000237B61EFF305837B627B6A002B40F09E
:101CC0009480EFF310833B623B6A002B40F08D80E1
:101CD000484B1B68022B06D1EFF31183FB61FB69B4
:101CE000002B40F08280FB68002B7ED080233B637A
:101CF0001823FB620023FB7607F11B037B634FF085
:101D0000FF33BB627B68002B45D07B681B68002BD0
:101D100002D07B681B687B637B689B69002B02D0C9
:101D20007B689B69FB62FB6A002B08D0FB6A382B3F
:101D300005D87B685B6803F00103002B01D000230A
:101D400054E07B685B69002B03D07B685B699B0870
:101D50003B637B689B68002B0ED07B68DB685B2B4A
:101D60000AD97B681B69002B06D07B685B69002B56
:101D700002D00123BB6210E07B689B68002B0CD172
:101D80007B68DB68002B08D17B681B69002B04D1C2
:101D90000023BB6201E00023BB62BB6A012B10D1B0
:101DA0007B681B697A68926802920193FB6A0093D0
:101DB000BB683A6B796BF86800F012FE03467B61F2
:101DC00013E0BB6A002B10D13B6B9AB207F11403EE
:101DD0000193FB6A0093BB68796BF86800F05CFEC6
:101DE0000346012B01D000237B617B6918463837FD
:101DF000BD4680BD3000002080B586B000AF786061
:101E0000EFF305833B613B69002B0FD1EFF31083A8
:101E1000FB60FB68002B09D10D4B1B68022B09D11D
:101E2000EFF31183BB60BB68002B03D06FF0050399
:101E30007B6107E000237B617B68002B02D0786820
:101E400000F066FF7B6918461837BD4680BD00BFAD
:101E50003000002080B485B000AFF860B9607A60CF
:101E6000FB68064A1A60BB68054A1A607B688022D4
:101E70001A6000BF1437BD4680BC70473400002094
:101E80009000002080B485B000AFF860B9607A603F
:101E9000FB68074A1A60BB68064A1A607B684FF401
:101EA00080721A6000BF1437BD4680BC704700BF07
:101EB00090020020EC02002080B483B000AF786074
:101EC0007B6803F108027B685A607B684FF0FF3241
:101ED0009A607B6803F108027B68DA607B6803F133
:101EE00008027B681A617B6800221A6000BF0C3709
:101EF000BD4680BC704780B483B000AF78607B681B
:101F000000221A6100BF0C37BD4680BC704780B408
:101F100085B000AF786039607B685B68FB603B68C8
:101F2000FA685A60FB689A683B689A60FB689B682D
:101F30003A685A60FB683A689A603B687A681A6146
:101F40007B681B685A1C7B681A6000BF1437BD464B
:101F500080BC704780B485B000AF786039603B6862
:101F60001B68BB60BB68B3F1FF3F03D17B681B6993
:101F7000FB600CE07B680833FB6002E0FB685B6899
:101F8000FB60FB685B681B68BA689A42F6D2FB6824
:101F90005A683B685A603B685B683A689A603B687D
:101FA000FA689A60FB683A685A603B687A681A6116
:101FB0007B681B685A1C7B681A6000BF1437BD46DB
:101FC00080BC704780B485B000AF78607B681B69C7
:101FD000FB607B685B687A6892689A607B689B6844
:101FE0007A6852685A60FB685B687A689A4203D1E3
:101FF0007B689A68FB685A607B6800221A61FB68FC
:102000001B685A1EFB681A60FB681B681846143769
:10201000BD4680BC7047000080B584B000AF7860DA
:1020200039607B68FB60FB68002B0AD14FF05003DE
:1020300083F31188BFF36F8FBFF34F8FBB6000BF77
:10204000FEE701F0CBFFFB681A68FB68DB6BF96801
:10205000096C01FB03F31A44FB685A60FB68002219
:102060009A63FB681A68FB689A60FB681A68FB68E9
:10207000DB6B013BF968096C01FB03F31A44FB6855
:10208000DA60FB68FF2283F84420FB68FF2283F8B4
:1020900045203B68002B14D1FB681B69002B1AD02C
:1020A000FB681033184601F0F1F80346002B12D0FC
:1020B0000C4B4FF080521A60BFF34F8FBFF36F8FFE
:1020C00009E0FB6810331846FFF7F6FEFB6824337F
:1020D0001846FFF7F1FE01F0B1FF01231846103753
:1020E000BD4680BD04ED00E080B58EB002AFF86063
:1020F000B9607A603B60FB68002B0AD14FF0500357
:1021000083F31188BFF36F8FBFF34F8FBB6200BFA4
:10211000FEE73B68002B0AD14FF0500383F3118890
:10212000BFF36F8FBFF34F8F7B6200BFFEE77B680B
:10213000002B02D0BB68002B01D0012300E000235C
:10214000002B0AD14FF0500383F31188BFF36F8F38
:10215000BFF34F8F3B6200BFFEE77B68002B02D1CD
:10216000BB68002B01D1012300E00023002B0AD122
:102170004FF0500383F31188BFF36F8FBFF34F8F7E
:10218000FB6100BFFEE750237B617B69502B0AD0C7
:102190004FF0500383F31188BFF36F8FBFF34F8F5E
:1021A000BB6100BFFEE73B68FB62FB6A002B0DD002
:1021B000FB6A012283F8462097F83820FB6A0093D7
:1021C00013467A68B968F86800F005F8FB6A1846A3
:1021D0003037BD4680BD80B584B000AFF860B960CF
:1021E0007A60FB70BB68002B03D1BB69BA691A60C7
:1021F00002E0BB697A681A60BB69FA68DA63BB6996
:10220000BA681A640121B869FFF706FFBB69FA785A
:1022100083F84C2000BF1037BD4680BD80B58EB01E
:1022200000AFF860B9607A603B6000237B63FB68B5
:102230003B633B6B002B0AD14FF0500383F31188B3
:10224000BFF36F8FBFF34F8FBB6200BFFEE7BB686A
:10225000002B03D13B6B1B6C002B01D1012300E051
:102260000023002B0AD14FF0500383F31188BFF3F2
:102270006F8FBFF34F8F7B6200BFFEE73B68022B7F
:1022800003D13B6BDB6B012B01D1012300E0002369
:10229000002B0AD14FF0500383F31188BFF36F8FE7
:1022A000BFF34F8F3B6200BFFEE701F0B1F9034679
:1022B000002B02D17B68002B01D1012300E0002319
:1022C000002B0AD14FF0500383F31188BFF36F8FB7
:1022D000BFF34F8FFB6100BFFEE701F07FFE3B6B5A
:1022E0009A6B3B6BDB6B9A4202D33B68022B29D182
:1022F0003A68B968386B00F007FAF8623B6B5B6AC2
:10230000002B10D03B6B2433184600F0BFFF034670
:10231000002B13D03F4B4FF080521A60BFF34F8F0A
:10232000BFF36F8F0AE0FB6A002B07D0394B4FF0E9
:1023300080521A60BFF34F8FBFF36F8F01F07EFEA4
:10234000012363E07B68002B03D101F077FE0023BB
:102350005CE07B6B002B06D107F11403184600F0FC
:10236000F9FF01237B6301F069FE00F06BFD01F0D2
:1023700035FE3B6B93F844305BB2B3F1FF3F03D1C2
:102380003B6B002283F844203B6B93F845305BB2F3
:10239000B3F1FF3F03D13B6B002283F8452001F0EE
:1023A0004DFE3A1D07F114031146184600F0E8FFF0
:1023B0000346002B24D1386B00F09EFA0346002B15
:1023C00018D03B6B10337A681146184600F00EFFA8
:1023D000386B00F029FA00F043FD0346002B7FF430
:1023E0007CAF0C4B4FF080521A60BFF34F8FBFF39E
:1023F0006F8F72E7386B00F017FA00F031FD6CE771
:10240000386B00F011FA00F02BFD00231846383726
:10241000BD4680BD04ED00E080B58EB000AFF86031
:10242000B9607A603B60FB683B633B6B002B0AD171
:102430004FF0500383F31188BFF36F8FBFF34F8FBB
:102440007B6200BFFEE7BB68002B03D13B6B1B6CBC
:10245000002B01D1012300E00023002B0AD14FF013
:10246000500383F31188BFF36F8FBFF34F8F3B622D
:1024700000BFFEE73B68022B03D13B6BDB6B012BFC
:1024800001D1012300E00023002B0AD14FF05003BB
:1024900083F31188BFF36F8FBFF34F8FFB6100BFD2
:1024A000FEE701F05DFEEFF311824FF0500383F37E
:1024B0001188BFF36F8FBFF34F8FBA617B61BB6928
:1024C000FB623B6B9A6B3B6BDB6B9A4202D33B68C4
:1024D000022B2CD13B6B93F8453087F82B303A68B0
:1024E000B968386B00F010F997F92B30B3F1FF3F62
:1024F00012D13B6B5B6A002B16D03B6B2433184622
:1025000000F0C4FE0346002B0ED07B68002B0BD0DE
:102510007B6801221A6007E097F82B300133DBB2A9
:102520005AB23B6B83F8452001237B6301E0002313
:102530007B63FB6A3B613B6983F3118800BF7B6B64
:1025400018463837BD4680BD80B58CB000AFF86006
:10255000B9607A600023FB62FB68BB62BB6A002B38
:102560000AD14FF0500383F31188BFF36F8FBFF38D
:102570004F8F3B6200BFFEE7BB68002B03D1BB6AF5
:102580001B6C002B01D1012300E00023002B0AD19A
:102590004FF0500383F31188BFF36F8FBFF34F8F5A
:1025A000FB6100BFFEE701F033F80346002B02D1C8
:1025B0007B68002B01D1012300E00023002B0AD10E
:1025C0004FF0500383F31188BFF36F8FBFF34F8F2A
:1025D000BB6100BFFEE701F001FDBB6A9B6B7B6244
:1025E0007B6A002B1FD0B968B86A00F0F7F87B6AE5
:1025F0005A1EBB6A9A63BB6A1B69002B0FD0BB6A69
:102600001033184600F042FE0346002B07D03D4B26
:102610004FF080521A60BFF34F8FBFF36F8F01F0FE
:102620000DFD012369E07B68002B03D101F006FD5D
:10263000002362E0FB6A002B06D107F11003184665
:1026400000F088FE0123FB6201F0F8FC00F0FAFBC9
:1026500001F0C4FCBB6A93F844305BB2B3F1FF3FB6
:1026600003D1BB6A002283F84420BB6A93F845304B
:102670005BB2B3F1FF3F03D1BB6A002283F8452070
:1026800001F0DCFC3A1D07F110031146184600F07A
:1026900077FE0346002B23D1B86A00F017F90346F2
:1026A000002B17D0BB6A24337A681146184600F015
:1026B0009DFDB86A00F0B8F800F0D2FB0346002B8D
:1026C00089D1104B4FF080521A60BFF34F8FBFF388
:1026D0006F8F80E7B86A00F0A7F800F0C1FB7AE7D7
:1026E000B86A00F0A1F800F0BBFBB86A00F0EEF8A1
:1026F0000346002B3FF46FAF002318463037BD462A
:1027000080BD00BF04ED00E080B586B000AFF8608A
:10271000B9607A6000237B61FB689B6B3B61FB685F
:102720001B6C002B0DD1FB681B68002B4DD1FB6887
:102730005B68184600F08AFF7861FB6800225A60E7
:1027400043E07B68002B19D1FB689868FB681B6C21
:102750001A46B96801F03EFFFB689A68FB681B6C7B
:102760001A44FB689A60FB689A68FB685B689A4247
:102770002BD3FB681A68FB689A6026E0FB68D86870
:10278000FB681B6C1A46B96801F024FFFB68DA6825
:10279000FB681B6C5B421A44FB68DA60FB68DA6812
:1027A000FB681B689A4207D2FB685A68FB681B6C7F
:1027B0005B421A44FB68DA607B68022B05D13B69F7
:1027C000002B02D03B69013B3B613B695A1CFB6813
:1027D0009A637B6918461837BD4680BD80B582B0C4
:1027E00000AF786039607B681B6C002B18D07B6869
:1027F000DA687B681B6C1A447B68DA607B68DA688D
:102800007B685B689A4203D37B681A687B68DA60EE
:102810007B68D9687B681B6C1A46386801F0DAFE61
:1028200000BF0837BD4680BD80B584B000AF78607A
:1028300001F0D4FB7B6893F84530FB7311E07B68B3
:102840005B6A002B12D07B682433184600F01EFD13
:102850000346002B01D000F0F5FDFB7B013BDBB212
:10286000FB7397F90F30002BE9DC00E000BF7B68B9
:10287000FF2283F8452001F0E1FB01F0AFFB7B680C
:1028800093F84430BB7311E07B681B69002B12D0B6
:102890007B681033184600F0F9FC0346002B01D08A
:1028A00000F0D0FDBB7B013BDBB2BB7397F90E3070
:1028B000002BE9DC00E000BF7B68FF2283F84420A6
:1028C00001F0BCFB00BF1037BD4680BD80B584B0B1
:1028D00000AF786001F082FB7B689B6B002B02D11C
:1028E0000123FB6001E00023FB6001F0A7FBFB6814
:1028F00018461037BD4680BD80B584B000AF786003
:1029000001F06CFB7B689A6B7B68DB6B9A4202D1AF
:102910000123FB6001E00023FB6001F08FFBFB68FB
:1029200018461037BD4680BD80B485B000AF7860D2
:1029300039600023FB6014E00E4AFB6852F8333024
:10294000002B0BD10B49FB683A6841F83320094A48
:10295000FB68DB0013447A685A6006E0FB680133C9
:10296000FB60FB68072BE7D900BF00BF1437BD46EB
:1029700080BC7047D019002080B586B000AFF860E9
:10298000B9607A60FB687B6101F028FB7B6993F892
:1029900044305BB2B3F1FF3F03D17B69002283F87F
:1029A00044207B6993F845305BB2B3F1FF3F03D11C
:1029B0007B69002283F8452001F040FB7B699B6B1B
:1029C000002B06D17B6924337A68B968184600F079
:1029D00031FC7869FFF728FF00BF1837BD4680BD7E
:1029E00080B58EB004AFF860B9607A603B607B6BF5
:1029F000002B0AD14FF0500383F31188BFF36F8F80
:102A0000BFF34F8F3B6200BFFEE7BB6B002B0AD1C9
:102A10004FF0500383F31188BFF36F8FBFF34F8FD5
:102A2000FB6100BFFEE75C233B613B695C2B0AD086
:102A30004FF0500383F31188BFF36F8FBFF34F8FB5
:102A4000BB6100BFFEE7BB6B002B1ED07B6B002B76
:102A50001BD0BB6B7B627B6A7A6B1A637B6A022238
:102A600083F85920002303937B6A029307F1140330
:102A700001933B6B00933B687A68B968F86800F093
:102A800050F8786A00F0D4F801E000237B617B699C
:102A900018462837BD4680BD80B58CB004AFF860BD
:102AA000B9603B601346FB80FB889B00184601F031
:102AB00095FB78617B69002B0ED05C2001F08EFBCA
:102AC000F861FB69002B03D0FB697A691A6305E0A2
:102AD000786901F047FC01E00023FB61FB69002BF2
:102AE00017D0FB69002283F85920FA88002303934A
:102AF000FB690293FB6A0193BB6A00933B68B96868
:102B0000F86800F00EF8F86900F092F80123BB6154
:102B100002E04FF0FF33BB61BB6918462037BD466A
:102B200080BD80B588B000AFF860B9607A603B6066
:102B30003B6B186B7B689B001A46A52101F058FD82
:102B40003B6B1A6B7B6803F18043013B9B00134492
:102B5000BB61BB6923F00703BB61BB6903F00703DB
:102B6000002B0AD04FF0500383F31188BFF36F8F0F
:102B7000BFF34F8F7B6100BFFEE70023FB6112E0D4
:102B8000BA68FB69134419783A6BFB691344343310
:102B90000A461A70BA68FB6913441B78002B06D0EA
:102BA000FB690133FB61FB690F2BE9D900E000BF32
:102BB0003B6B002283F84320BB6A372B01D93723B4
:102BC000BB623B6BBA6ADA623B6BBA6ADA643B6B34
:102BD00000221A653B6B04331846FFF78CF93B6BF8
:102BE00018331846FFF787F93B6B3A6B1A61BB6ADB
:102BF000C3F138023B6B9A613B6B3A6B5A623B6B99
:102C000000225A653B6B002283F858203A68F96825
:102C1000B86901F0EFF802463B6B1A60FB6A002BC3
:102C200002D0FB6A3A6B1A6000BF2037BD4680BDF8
:102C300080B582B000AF786001F0D0F92D4B1B68F1
:102C400001332C4A13602C4B1B68002B09D12A4AF4
:102C50007B681360274B1B68012B10D100F016FC1A
:102C60000DE0264B1B68002B09D1234B1B68DA6A49
:102C70007B68DB6A9A4202D81F4A7B681360204B4C
:102C80001B6801331E4A13601D4B1A687B685A6427
:102C90007B68DA6A1B4B1B689A4203D97B68DB6A44
:102CA000184A13607B68DA6A13469B0013449B0042
:102CB000154A1A447B68043319461046FFF727F972
:102CC00001F0BCF90D4B1B68002B0ED00A4B1B68A2
:102CD000DA6A7B68DB6A9A4207D20C4B4FF080526B
:102CE0001A60BFF34F8FBFF36F8F00BF0837BD4629
:102CF00080BD00BFC00B0020EC060020CC0B0020E4
:102D0000DC0B0020C80B0020F006002004ED00E0E2
:102D100080B584B000AF78600023FB607B68002B37
:102D200017D0134B1B68002B0AD04FF0500383F3CE
:102D30001188BFF36F8FBFF34F8FBB6000BFFEE7FB
:102D400000F080F80021786800F0EEFC00F088F8D0
:102D5000F860FB68002B07D1064B4FF080521A60D9
:102D6000BFF34F8FBFF36F8F00BF1037BD4680BDDD
:102D7000E80B002004ED00E080B58AB004AF00232A
:102D8000BB6000237B603A46391D07F108031846F3
:102D9000FFF760F839687B68BA68029201930023F4
:102DA000009300230A4621492148FFF719FE0346F4
:102DB000204A13601F4B1B68002B02D001237B614C
:102DC00001E000237B617B69012B02D100F000FD53
:102DD00078617B69012B16D14FF0500383F3118882
:102DE000BFF36F8FBFF34F8F3B6100BF124B4FF0AC
:102DF000FF321A60114B01221A60114B00221A6037
:102E000001F07AF80EE07B69B3F1FF3F0AD14FF091
:102E1000500383F31188BFF36F8FBFF34F8FFB60B5
:102E200000BFFEE700BF1837BD4680BD384600082A
:102E30005D340008E40B0020E00B0020CC0B0020E8
:102E4000C40B002080B400AF044B1B680133034A5D
:102E5000136000BFBD4680BC704700BFE80B002078
:102E600080B584B000AF0023FB600023BB60424B01
:102E70001B68002B0AD14FF0500383F31188BFF376
:102E80006F8FBFF34F8F3B6000BFFEE701F0A6F8E6
:102E9000394B1B68013B384A1360374B1B68002BCA
:102EA00062D1364B1B68002B5ED02FE0344BDB68C1
:102EB000DB68FB60FB6818331846FFF783F8FB6894
:102EC00004331846FFF77EF8FB68DA6A2D4B1B685F
:102ED0009A4203D9FB68DB6A2A4A1360FB68DA6A04
:102EE00013469B0013449B00274A1A44FB68043393
:102EF00019461046FFF70BF8FB68DA6A234B1B688C
:102F0000DB6A9A4202D3224B01221A601C4B1B68D7
:102F1000002BCBD1FB68002B01D000F055FB1D4BE3
:102F20001B687B607B68002B10D000F045F80346DF
:102F3000002B02D0164B01221A607B68013B7B609C
:102F40007B68002BF1D1134B00221A60104B1B68D9
:102F5000002B09D00123BB600F4B4FF080521A6049
:102F6000BFF34F8FBFF36F8F01F068F8BB6818464F
:102F70001037BD4680BD00BFE80B0020C00B00200D
:102F8000800B0020C80B0020F0060020EC0600207B
:102F9000D40B0020D00B002004ED00E080B483B0FF
:102FA00000AF044B1B687B607B6818460C37BD463E
:102FB00080BC7047C40B002080B586B000AF0023F2
:102FC0007B61514B1B68002B40F08E804F4B1B6880
:102FD00001333B614D4A3B6913603B69002B20D1B3
:102FE0004B4B1B681B68002B0AD04FF0500383F338
:102FF0001188BFF36F8FBFF34F8F3B6000BFFEE7B9
:10300000434B1B68FB60434B1B68414A1360414ABA
:10301000FB681360404B1B6801333F4A136000F0AC
:10302000D3FA3E4B1B683A699A424ED3384B1B6821
:103030001B68002B01D1012300E00023002B04D0EA
:10304000364B4FF0FF321A603FE0314B1B68DB68B4
:10305000DB68BB60BB685B687B603A697B689A42EF
:1030600003D22E4A7B6813602FE0BB6804331846F6
:10307000FEF7A8FFBB689B6A002B04D0BB6818331F
:103080001846FEF79FFFBB68DA6A254B1B689A4219
:1030900003D9BB68DB6A224A1360BB68DA6A13464D
:1030A0009B0013449B001F4A1A44BB680433194613
:1030B0001046FEF72CFFBB68DA6A1B4B1B68DB6A05
:1030C0009A42B3D301237B61B0E7174B1B68DA6ADE
:1030D000144913469B0013449B000B441B68012BAF
:1030E00007D901237B6104E0104B1B6801330F4AB1
:1030F00013600F4B1B68002B01D001237B617B69A0
:1031000018461837BD4680BDE80B0020C40B0020D0
:10311000780B00207C0B0020D80B0020E00B002057
:10312000C80B0020F0060020EC060020D00B002089
:10313000D40B002080B485B000AF274B1B68002B58
:1031400003D0264B01221A6041E0244B00221A6072
:10315000234B1B68FB6010E0FB68002B0AD14FF08B
:10316000500383F31188BFF36F8FBFF34F8F7B60E2
:1031700000BFFEE7FB68013BFB601A49FA68134693
:103180009B0013449B000B441B68002BE4D0FA689F
:1031900013469B0013449B00124A1344BB60BB6858
:1031A0005B685A68BB685A60BB685A68BB6808337A
:1031B0009A4204D1BB685B685A68BB685A60BB68B6
:1031C0005B68DB68084A1360054AFB68136000BF50
:1031D0001437BD4680BC7047E80B0020D40B00209C
:1031E000C80B0020F0060020EC06002080B584B05B
:1031F00000AF786039607B68002B0AD14FF0500334
:1032000083F31188BFF36F8FBFF34F8FFB6000BF55
:10321000FEE7074B1B68183319467868FEF79AFEDD
:103220000121386800F080FA00BF1037BD4680BD2C
:10323000EC06002080B586B000AFF860B9607A6017
:10324000FB68002B0AD14FF0500383F31188BFF3C2
:103250006F8FBFF34F8F7B6100BFFEE70A4B1B6888
:1032600018331946F868FEF752FE7B68002B02D02F
:103270004FF0FF33BB607968B86800F055FA00BFC3
:103280001837BD4680BD00BFEC06002080B586B073
:1032900000AF78607B68DB68DB683B613B69002BD3
:1032A0000AD14FF0500383F31188BFF36F8FBFF340
:1032B0004F8FFB6000BFFEE73B6918331846FEF7EF
:1032C00081FE1E4B1B68002B1DD13B690433184641
:1032D000FEF778FE3B69DA6A194B1B689A4203D9FC
:1032E0003B69DB6A164A13603B69DA6A13469B0046
:1032F00013449B00134A1A443B6904331946104691
:10330000FEF705FE05E03B69183319460E48FEF747
:10331000FEFD3B69DA6A0D4B1B68DB6A9A4205D9F0
:1033200001237B610A4B01221A6001E000237B61CB
:103330007B6918461837BD4680BD00BFE80B0020EA
:10334000C80B0020F0060020800B0020EC060020B7
:10335000D40B002080B483B000AF7860064B1A68AD
:103360007B681A60054B1A687B685A6000BF0C378F
:10337000BD4680BC704700BFD80B0020C40B0020A6
:1033800080B588B000AF786039607B68002B0AD1C7
:103390004FF0500383F31188BFF36F8FBFF34F8F4C
:1033A0003B6100BFFEE73B68002B0AD14FF05003A2
:1033B00083F31188BFF36F8FBFF34F8FFB6000BFA4
:1033C000FEE700F00BFE1D4B1B68BB617B685B6872
:1033D000BA69D31A7B613B681B68B3F1FF3F02D126
:1033E0000023FB6123E07B681A68154B1B689A4237
:1033F00007D07B685B68BA699A4202D30123FB61FC
:1034000015E03B681B687A699A420BD23B681A68E0
:103410007B69D21A3B681A607868FFF79BFF00232C
:10342000FB6104E03B6800221A600123FB6100F0AD
:1034300005FEFB6918462037BD4680BDC40B002041
:10344000D80B002080B400AF034B01221A6000BFEC
:10345000BD4680BC704700BFD40B002080B582B051
:1034600000AF786000F052F8064B1B68012BF9D9C9
:10347000054B4FF080521A60BFF34F8FBFF36F8F31
:10348000F0E700BFF006002004ED00E080B582B058
:1034900000AF00237B600CE07A6813469B00134466
:1034A0009B00124A13441846FEF706FD7B68013361
:1034B0007B607B68372BEFD90D48FEF7FDFC0D488C
:1034C000FEF7FAFC0C48FEF7F7FC0C48FEF7F4FC9C
:1034D0000B48FEF7F1FC0B4B054A1A600A4B054AF4
:1034E0001A6000BF0837BD4680BD00BFF00600204F
:1034F000500B0020640B0020800B0020940B002058
:10350000AC0B0020780B00207C0B002080B582B033
:1035100000AF19E000F062FD104BDB68DB687B60F8
:103520007B6804331846FEF74DFD0D4B1B68013BCD
:103530000B4A13600B4B1B68013B0A4A136000F0F7
:103540007DFD786800F010F8064B1B68002BE1D178
:1035500000BF00BF0837BD4680BD00BF940B0020F0
:10356000C00B0020A80B002080B584B000AF7860AD
:103570007B6893F85930002B08D17B681B6B184689
:1035800000F0F0FE786800F0EDFE18E07B6893F83C
:103590005930012B03D1786800F0E4FE0FE07B681E
:1035A00093F85930022B0AD04FF0500383F311885F
:1035B000BFF36F8FBFF34F8FFB6000BFFEE700BF0D
:1035C0001037BD4680BD000080B483B000AF0E4B05
:1035D0001B681B68002B01D1012300E00023002B96
:1035E00004D00A4B4FF0FF321A6008E0064B1B680C
:1035F000DB68DB687B607B685B68044A136000BF44
:103600000C37BD4680BC7047780B0020E00B0020D3
:1036100080B483B000AF0B4B1B68002B02D1012399
:103620007B6008E0084B1B68002B02D102237B6003
:1036300001E000237B607B6818460C37BD4680BCE8
:10364000704700BFCC0B0020E80B002080B586B08F
:1036500000AF78607B683B6100237B617B68002B57
:1036600056D02E4B1B683A699A420AD04FF050034D
:1036700083F31188BFF36F8FBFF34F8FFB6000BFE1
:10368000FEE73B691B6D002B0AD14FF0500383F31B
:103690001188BFF36F8FBFF34F8FBB6000BFFEE792
:1036A0003B691B6D5A1E3B691A653B69DA6A3B69C7
:1036B000DB6C9A422CD03B691B6D002B28D13B69F7
:1036C00004331846FEF77EFC3B69DA6C3B69DA622C
:1036D0003B69DB6AC3F138023B699A613B69DA6A8C
:1036E0000F4B1B689A4203D93B69DB6A0C4A136093
:1036F0003B69DA6A13469B0013449B00094A1A444B
:103700003B69043319461046FEF701FC01237B6137
:103710007B6918461837BD4680BD00BFEC06002007
:10372000C80B0020F006002080B584B000AF7860A0
:103730003960214B1B68FB60204B1B680433184623
:10374000FEF740FC7B68B3F1FF3F0AD13B68002BDA
:1037500007D01A4B1B68043319461948FEF7D7FBEC
:1037600026E0FA687B681344BB60144B1B68BA6898
:103770005A60BA68FB689A4209D2124B1A680F4B1A
:103780001B68043319461046FEF7E4FB10E00E4BAD
:103790001A680A4B1B68043319461046FEF7DAFB19
:1037A0000A4B1B68BA689A4202D2084ABB68136087
:1037B00000BF1037BD4680BDC40B0020EC060020C2
:1037C000AC0B00207C0B0020780B0020E00B0020CD
:1037D00080B58AB004AF00237B6100F0CBFA1C4BAC
:1037E0001B68002B21D00023FB600023BB603A1D27
:1037F00007F1080107F10C031846FEF743FB79684F
:10380000BB68FA68029201930223009300230A46E0
:1038100010491148FFF7E4F80346104A13600F4BB4
:103820001B68002B01D001237B617B69002B0AD12F
:103830004FF0500383F31188BFF36F8FBFF34F8FA7
:103840003B6100BFFEE77B6918461837BD4680BD67
:103850001C0C0020404600087D390008200C002088
:1038600080B58AB000AFF860B9607A603B60002331
:103870007B62FB68002B0AD14FF0500383F3118861
:10388000BFF36F8FBFF34F8F3B6200BFFEE71A4B52
:103890001B68002B2AD0BB683B617B687B61FB689F
:1038A000BB61BB68052B18DCFFF7B2FE0346022B99
:1038B00009D1114B186807F1100100233A6BFEF78C
:1038C000ADFC786212E00C4B186807F11001002380
:1038D0000022FEF7A3FC786208E0074B186807F1A6
:1038E000100100233A68FEF797FD78627B6A18465C
:1038F0002837BD4680BD00BF1C0C002080B588B0B5
:1039000002AF786039601C4B1B68DB68DB687B6149
:103910007B6904331846FEF755FB7B69DB69012B95
:1039200022D17B699A697B68D1187B683A6878698B
:1039300000F0C8F80346002B16D0002300930023A4
:103940007A6800217869FFF78BFF38613B69002BAB
:103950000AD14FF0500383F31188BFF36F8FBFF389
:103960004F8FFB6000BFFEE77B695B6A7869984711
:1039700000BF1837BD4680BD140C002080B584B050
:1039800000AF786007F10803184600F057F8F860B8
:10399000BB681946F86800F003F800F0D5F8F1E7C5
:1039A00080B584B000AF78603960FFF74BFA07F15B
:1039B0000803184600F066F8F860BB68002B30D1A9
:1039C0003B68002B0AD17A68FB689A4206D8FFF759
:1039D00047FAF9687868FFF791FF24E03B68002B0D
:1039E00008D0134B1B681B68002B0CBF012300235E
:1039F000DBB23B600F4B18687A68FB68D31A3A68F1
:103A00001946FEF7B9FFFFF72BFA0346002B0AD140
:103A1000094B4FF080521A60BFF34F8FBFF36F8F87
:103A200001E0FFF71DFA00BF1037BD4680BD00BFA3
:103A3000180C00201C0C002004ED00E080B485B0C0
:103A400000AF78600E4B1B681B68002B0CBF012376
:103A50000023DBB21A467B681A607B681B68002B68
:103A600005D1074B1B68DB681B68FB6001E0002386
:103A7000FB60FB6818461437BD4680BC704700BF2A
:103A8000140C002080B584B000AF7860FFF786FA90
:103A9000F8600B4B1B68FA689A4205D200F008F9EF
:103AA0007B6801221A6002E07B6800221A60044AE7
:103AB000FB681360FB6818461037BD4680BD00BF29
:103AC000240C002080B586B000AFF860B9607A6041
:103AD0003B6000237B61FB68BA685A60FB68FA6848
:103AE0001A61BA687B689A4212D87A683B68D21A1F
:103AF000FB689B699A4202D301237B611BE0104B58
:103B00001A68FB68043319461046FEF723FA12E0E0
:103B10007A683B689A4206D2BA683B689A4202D3F6
:103B200001237B6107E0074B1A68FB6804331946E1
:103B30001046FEF70FFA7B6918461837BD4680BD60
:103B4000180C0020140C002080B58EB002AF9DE050
:103B50007B68002B18DA3B1D0433FB62FB6A002BE9
:103B60000AD14FF0500383F31188BFF36F8FBFF377
:103B70004F8FFB6100BFFEE7FB6A1B68FA6A506863
:103B8000FA6A9268114698477B68002B7DDBFB68D8
:103B9000BB62BB6A5B69002B04D0BB6A0433184666
:103BA000FEF710FA3B461846FFF76CFF78627B6819
:103BB000092B6BD801A252F823F000BFE53B0008A7
:103BC000E53B0008E53B00088D3C0008413C00084F
:103BD000793C0008E53B0008E53B00088D3C000807
:103BE000413C0008BA68BB6A9B69D118BB687A6A15
:103BF000B86AFFF767FF0346002B47D0BB6A5B6AD2
:103C0000B86A9847BB6ADB69012B3FD1BA68BB6AC7
:103C10009B691A440023009300230021B86AFFF730
:103C20001FFE38623B6A002B30D14FF0500383F304
:103C30001188BFF36F8FBFF34F8FBB6100BFFEE7EB
:103C4000BA68BB6A9A61BB6A9B69002B0AD14FF0C4
:103C5000500383F31188BFF36F8FBFF34F8F7B61E6
:103C600000BFFEE7BB6A9A697B6AD1187B6A7A6AF1
:103C7000B86AFFF727FF09E0BB6A93F82C30002BE6
:103C800004D1B86A00F06EFB00E000BF074B1B6870
:103C9000391D00221846FEF757FC0346002B7FF41F
:103CA00057AF00BF00BF3037BD4680BD1C0C0020A1
:103CB00080B588B002AF45E02C4B1B68DB681B6801
:103CC0003B612A4B1B68DB68DB68FB60FB680433E5
:103CD0001846FEF777F9FB685B6AF8689847FB6857
:103CE000DB69012B2ED1FB689B693A691344BB60E9
:103CF000BA683B699A420ED9FB68BA685A60FB6899
:103D0000FA681A61194B1A68FB68043319461046A1
:103D1000FEF720F916E00023009300233A69002102
:103D2000F868FFF79DFD78607B68002B0AD14FF0A3
:103D3000500383F31188BFF36F8FBFF34F8F3B6046
:103D400000BFFEE7094B1B681B68002BB4D1074B73
:103D50001B687B61064B1B68044A1360044A7B693D
:103D6000136000BF1837BD4680BD00BF140C002093
:103D7000180C002080B582B002AF00F02FF9154B6F
:103D80001B68002B20D11448FEF796F81348FEF765
:103D900093F8134B104A1A60124B104A1A60002312
:103DA0000093114B114A10210A20FEF79DF903469A
:103DB000084A1360074B1B68002B05D0054B1B6896
:103DC0000B491846FEF7B0FD00F038F900BFBD46BC
:103DD00080BD00BF1C0C0020EC0B0020000C00205C
:103DE000140C0020180C0020C80C0020280C002007
:103DF0004846000880B485B000AFF860B9607A60CA
:103E0000FB68043BFB60FB684FF080721A60FB6844
:103E1000043BFB60BB6823F00102FB681A60FB688F
:103E2000043BFB60084AFB681A60FB68143BFB60BC
:103E30007A68FB681A60FB68203BFB60FB681846E9
:103E40001437BD4680BC70474D3E000880B485B035
:103E500000AF00237B60124B1B68B3F1FF3F0AD019
:103E60004FF0500383F31188BFF36F8FBFF34F8F71
:103E7000FB6000BFFEE74FF0500383F31188BFF3F0
:103E80006F8FBFF34F8FBB6000BF00BF7B68002BFD
:103E9000FCD000BF00BF1437BD4680BC704700BFD8
:103EA0000C000020000000000000000000000000E6
:103EB000074B19680868B0E8F00F80F30988BFF372
:103EC0006F8F4FF0000080F311884EF00D0E704799
:103ED000EC06002000BF00BF06480068006880F3C1
:103EE000088862B661B6BFF34F8FBFF36F8F00DFF4
:103EF00000BF00BF08ED00E080B584B000AF324BDA
:103F0000FB60FB681B78DBB27B60FB68FF221A70EA
:103F1000FB681B78DBB2FB70FB78DBB203F050036D
:103F2000DAB22A4B1A702A4B07221A6009E0284B92
:103F30001B68013B264A1360FB78DBB25B00DBB2F7
:103F4000FB70FB78DBB203F08003802BEFD0204BBB
:103F50001B68C3F10703042B0AD04FF0500383F30F
:103F60001188BFF36F8FBFF34F8FBB6000BFFEE7B9
:103F7000174B1B681B02164A1360154B1B6803F492
:103F8000E063134A13607B68DAB2FB681A70114B66
:103F90001B68104A43F4700313600E4B1B680D4AF4
:103FA00043F07043136000F0B9F80B4B00221A6025
:103FB000FFF792FFFFF7BEF8FFF748FF0023184610
:103FC0001037BD4680BD00BF00E400E0180D0020A2
:103FD0001C0D002020ED00E00C00002080B483B018
:103FE00000AF4FF0500383F31188BFF36F8FBFF31F
:103FF0004F8F7B6000BF0F4B1B6801330D4A13606E
:104000000C4B1B68012B0FD10B4B1B68DBB2002B39
:104010000AD04FF0500383F31188BFF36F8FBFF3C3
:104020004F8F3B6000BFFEE700BF0C37BD4680BC32
:10403000704700BF0C00002004ED00E080B483B0A6
:1040400000AF114B1B68002B0AD14FF0500383F3D4
:104050001188BFF36F8FBFF34F8F7B6000BFFEE708
:10406000094B1B68013B084A1360074B1B68002B78
:1040700005D100233B603B6883F3118800BF00BF7C
:104080000C37BD4680BC70470C00002000000000CB
:10409000EFF30980BFF36F8F0D4B1A6820E9F00F23
:1040A00010602DE908404FF0500080F31188FFF7B1
:1040B00041F84FF0000080F31188BDE8084019680E
:1040C0000868B0E8F00F80F30988BFF36F8F70477E
:1040D000EC06002000BF00BF80B582B000AF4FF0FB
:1040E000500383F31188BFF36F8FBFF34F8F7B6053
:1040F00000BFFEF761FF0346002B03D0064B4FF0D5
:1041000080521A6000233B603B6883F3118800BF34
:1041100000BF0837BD4680BD04ED00E080B400AFAD
:104120000A4B00221A600A4B00221A60094B1B68D6
:10413000094AA2FB03239B09084A013B1360034B76
:1041400007221A6000BFBD4680BC704710E000E047
:1041500018E000E000000020D34D621014E000E001
:1041600080B485B000AFEFF30583FB60FB680F2BD5
:1041700014D9164AFB6813441B78FB72144B1B7846
:10418000FA7A9A420AD24FF0500383F31188BFF3B0
:104190006F8FBFF34F8F7B6000BFFEE70D4B1B6837
:1041A00003F4E0620C4B1B689A420AD94FF05003AB
:1041B00083F31188BFF36F8FBFF34F8F3B6000BF56
:1041C000FEE700BF1437BD4680BC7047F0E300E057
:1041D000180D00200CED00E01C0D002080B58AB009
:1041E00000AF78600023FB61FEF72CFE584B1B6884
:1041F000002B01D100F010F9564B1A687B68134070
:10420000002B40F08E807B68002B1DD008227B683D
:1042100013447B607B6803F00703002B14D07B689A
:1042200023F0070308337B607B6803F00703002B50
:104230000AD04FF0500383F31188BFF36F8FBFF3A1
:104240004F8F7B6100BFFEE77B68002B69D0424B3C
:104250001B687A689A4264D8404B3B623F4B1B68AC
:104260007B6204E07B6A3B627B6A1B687B627B6AE1
:104270005B687A689A4203D97B6A1B68002BF1D18C
:10428000334B1B687A6A9A424BD03B6A1B68082200
:104290001344FB617B6A1A683B6A1A607B6A5A683E
:1042A0007B68D21A08235B009A421FD97A6A7B681E
:1042B0001344BB61BB6903F00703002B0AD04FF026
:1042C000500383F31188BFF36F8FBFF34F8F3B61B0
:1042D00000BFFEE77B6A5A687B68D21ABB695A60E6
:1042E0007B6A7A685A60B86900F0F8F81A4B1A6865
:1042F0007B6A5B68D31A184A1360174B1A68184B0D
:104300001B689A4203D2144B1B68154A13607B6AE0
:104310005A68104B1B681A437B6A5A607B6A0022FA
:104320001A60FEF79DFDFB6903F00703002B0AD01E
:104330004FF0500383F31188BFF36F8FBFF34F8F9C
:10434000FB6000BFFEE7FB6918462837BD4680BD0D
:1043500028190020341900202C19002020190020D1
:104360003019002080B586B000AF78607B687B6133
:104370007B68002B48D008235B427A6913447B6139
:104380007B693B613B695A68214B1B681340002BDA
:104390000AD14FF0500383F31188BFF36F8FBFF33F
:1043A0004F8FFB6000BFFEE73B691B68002B0AD004
:1043B0004FF0500383F31188BFF36F8FBFF34F8F1C
:1043C000BB6000BFFEE73B695A68114B1B68134096
:1043D000002B19D03B691B68002B15D13B695A682B
:1043E0000B4B1B68DB431A403B695A60FEF72AFD02
:1043F0003B695A68074B1B681344064A13603869C7
:1044000000F06CF8FEF72CFD00BF1837BD4680BDEC
:10441000341900202C19002080B485B000AF4FF46F
:104420004063BB60274BFB60FB6803F00703002B76
:104430000CD0FB680733FB60FB6823F00703FB60CD
:10444000BA68FB68D31A1F4A1344BB60FB687B60E1
:104450001D4A7B6813601C4B00225A607B68BA6857
:104460001344FB600822FB689B1AFB60FB6823F087
:104470000703FB60FB68154A1360144B1B6800229E
:104480005A60124B1B6800221A607B683B603B68D5
:10449000FA68D21A3B685A600C4B1A683B681A607B
:1044A0003B685B680A4A13603B685B68094A1360B3
:1044B000094B4FF000421A6000BF1437BD4680BC64
:1044C000704700BF200D002020190020281900206F
:1044D000301900202C1900203419002080B485B038
:1044E00000AF7860274BFB6002E0FB681B68FB6055
:1044F000FB681B687A689A42F7D8FB68BB60FB6868
:104500005B68BA6813447A689A4208D1FB685A68B3
:104510007B685B681A44FB685A60FB687B607B6859
:10452000BB607B685B68BA681A44FB681B689A4288
:1045300018D1FB681A68144B1B689A420DD07B682F
:104540005A68FB681B685B681A447B685A60FB68A2
:104550001B681A687B681A6008E00B4B1A687B6856
:104560001A6003E0FB681A687B681A60FA687B6867
:104570009A4202D0FB687A681A6000BF1437BD46C1
:1045800080BC7047201900202819002070B5002633
:104590000C4D0D4C641BA410A64209D100F030F85C
:1045A00000260A4D0A4C641BA410A64205D170BD1A
:1045B00055F8043B98470136EEE755F8043B984719
:1045C0000136F2E7B0460008B0460008B0460008E1
:1045D000B44600080A44914200F1FF3300D170470D
:1045E00010B511F8014B914203F8014FF9D110BDFC
:1045F00003460244934200D1704703F8011BF9E7D8
:10460000F8B500BFF8BC08BC9E467047F8B500BFBF
:08461000F8BC08BC9E4670478F
:104618005461736B310000005461736B3200000009
:1046280002030405060708090A0B0C0D0E0F1010EB
:1046380049444C4500000000546D722053766300D5
:10464800546D725100000000184600080000000078
:104658000000000000000000000000000002000050
:1046680018000000000000000000000020460008BC
:104678000000000000000000000000000000000032
:104688000002000008000000000000000000000018
:1046980000000000000000000102030406070809EA
:0846A800000000000102030400
:0446B00015020008E7
:0446B400F101000808
:1046B8000024F4001000000001000000AAAAAAAA21
:04000005080006B138
:00000001FF
